S01700004763634170706C69636174696F6E312E737265635B
S11300000C945A000C9464000C9464000C946400E6
S11300100C9464000C9464000C9464000C946400CC
S11300200C9464000C9464000C9464000C946400BC
S11300300C9464000C9464000C9464000C946400AC
S11300400C9464000C9464000C9464000C9464009C
S11300500C9464000C9464000C9464000C9464008C
S11300600C9464000C9464000C9464000C9464007C
S11300700C9464000C9464000C9464000C9464006C
S11300800C9464000C9464000C9464000C9464005C
S11300900C9464000C9464000C9464000C9464004C
S11300A00C9464000C9464000C9464000C9464003C
S11300B00C94640011241FBECFEFD8E0DEBFCDBF87
S11300C00E9466000C9494000C940000CF93DF937C
S11300D000D000D0CDB7DEB790E080E80FB6F8943A
S11300E080936100909361000FBE8FEF84B985B156
S11300F0809585B919821A821B821C820BC0898162
S11301009A81AB81BC810196A11DB11D89839A831B
S1130110AB83BC8389819A81AB81BC8180389B4B42
S10F0120A105B10560F3E3CFF894FFCF14
S9030000FC
